:020000040000fa
:080000000001040000000000f3
:020000040000fa
:040008000c020000e6
:020000040000fa
:04000c004c020000a2
:020000040000fa
:040010008402000066
:020000040000fa
:0400140028020000be
:020000040000fa
:04001800680200007a
:020000040000fa
:04001c006e0500006d
:020000040000fa
:04002000a00200003a
:020000040000fa
:040024006e05000065
:020000040000fa
:040028006e05000061
:020000040000fa
:04002c006e0500005d
:020000040000fa
:040030006e05000059
:020000040000fa
:040034006e05000055
:020000040000fa
:040038006e05000051
:020000040000fa
:04003c006e0500004d
:020000040000fa
:040040006e05000049
:020000040000fa
:040044006e05000045
:020000040000fa
:04004800bc020000f6
:020000040000fa
:04004c006e0500003d
:020000040000fa
:040050006e05000039
:020000040000fa
:040054006e05000035
:020000040000fa
:040058006e05000031
:020000040000fa
:04005c006e0500002d
:020000040000fa
:040060006e05000029
:020000040000fa
:040064006e05000025
:020000040000fa
:040068006e05000021
:020000040000fa
:04006c00d8020000b6
:020000040000fa
:040070006e05000019
:020000040000fa
:040074006e05000015
:020000040000fa
:040078006e05000011
:020000040000fa
:04007c006e0500000d
:020000040000fa
:040080006e05000009
:020000040000fa
:040084006e05000005
:020000040000fa
:040088006e05000001
:020000040000fa
:04008c006e050000fd
:020000040000fa
:040090006e050000f9
:020000040000fa
:04009400e80400007c
:020000040000fa
:040098006e050000f1
:020000040000fa
:04009c006e050000ed
:020000040000fa
:0400a0006e050000e9
:020000040000fa
:0400a4006e050000e5
:020000040000fa
:0400a8006e050000e1
:020000040000fa
:0400ac006e050000dd
:020000040000fa
:0400b0006e050000d9
:020000040000fa
:0400b4006e050000d5
:020000040000fa
:0400b8006e050000d1
:020000040000fa
:0400bc006e050000cd
:020000040000fa
:0400c0006e050000c9
:020000040000fa
:0400c4006e050000c5
:020000040000fa
:0400c8006e050000c1
:020000040000fa
:0400cc006e050000bd
:020000040000fa
:0400d0006e050000b9
:020000040000fa
:0400d4006e050000b5
:020000040000fa
:0400d8006e050000b1
:020000040000fa
:0400dc006e050000ad
:020000040000fa
:0400e0006e050000a9
:020000040000fa
:0400e4006e050000a5
:020000040000fa
:0400e8006e050000a1
:020000040000fa
:0400ec006e0500009d
:020000040000fa
:0400f0006e05000099
:020000040000fa
:0400f4006e05000095
:020000040000fa
:0400f8006e05000091
:020000040000fa
:0400fc006e0500008d
:020000040000fa
:040100006e05000088
:020000040000fa
:040104006e05000084
:020000040000fa
:040108006e05000080
:020000040000fa
:04010c006e0500007c
:020000040000fa
:040110006e05000078
:020000040000fa
:040114006e05000074
:020000040000fa
:040118006e05000070
:020000040000fa
:04011c006e0500006c
:020000040000fa
:040120006e05000068
:020000040000fa
:040124006e05000064
:020000040000fa
:040128006e05000060
:020000040000fa
:04012c006e0500005c
:020000040000fa
:040130006e05000058
:020000040000fa
:040134006e05000054
:020000040000fa
:040138006e05000050
:020000040000fa
:04013c006e0500004c
:020000040000fa
:040140006e05000048
:020000040000fa
:040144006e05000044
:020000040000fa
:040148006e05000040
:020000040000fa
:04014c006e0500003c
:020000040000fa
:040150006e05000038
:020000040000fa
:040154006e05000034
:020000040000fa
:040158006e05000030
:020000040000fa
:04015c006e0500002c
:020000040000fa
:040160006e05000028
:020000040000fa
:040164006e05000024
:020000040000fa
:040168006e05000020
:020000040000fa
:04016c006e0500001c
:020000040000fa
:040170006e05000018
:020000040000fa
:040174006e05000014
:020000040000fa
:040178006e05000010
:020000040000fa
:04017c006e0500000c
:020000040000fa
:040180006e05000008
:020000040000fa
:040184006e05000004
:020000040000fa
:040188006e05000000
:020000040000fa
:04018c006e050000fc
:020000040000fa
:040190006e050000f8
:020000040000fa
:040194006e050000f4
:020000040000fa
:040198006e050000f0
:020000040000fa
:04019c006e050000ec
:020000040000fa
:0401a0006e050000e8
:020000040000fa
:0401a4006e050000e4
:020000040000fa
:0401a8006e050000e0
:020000040000fa
:0401ac006e050000dc
:020000040000fa
:0401b0006e050000d8
:020000040000fa
:0401b4006e050000d4
:020000040000fa
:0401b8006e050000d0
:020000040000fa
:0401bc006e050000cc
:020000040000fa
:0401c0006e050000c8
:020000040000fa
:0401c4006e050000c4
:020000040000fa
:0401c8006e050000c0
:020000040000fa
:0401cc006e050000bc
:020000040000fa
:0401d0006e050000b8
:020000040000fa
:0401d4006e050000b4
:020000040000fa
:0401d8006e050000b0
:020000040000fa
:0401dc006e050000ac
:020000040000fa
:0401e0006e050000a8
:020000040000fa
:0401e4006e050000a4
:020000040000fa
:0401e8006e050000a0
:020000040000fa
:0401ec006e0500009c
:020000040000fa
:0401f0006e05000098
:020000040000fa
:0401f4006e05000094
:020000040000fa
:0401f8006e05000090
:020000040000fa
:0401fc006e0500008c
:020000040000fa
:100200002fa620000e7f22000e01880000000000b3
:10021000000020000000e000020032000001200089
:1002200020028800140007002e0207000000e000f2
:1002300003003a0080e620000100200002003700a1
:100240000000200001002000810f7000010032003a
:1002500014000700000020000000e000020032004f
:100260000000020000000000000e0200000000007c
:100270000040da000000fe004440a900e003200036
:100280000000e00003003200002020009001880000
:100290004440a800000006008a1f78008b1f7800e9
:1002a00000000600a1028800800478000000eb0036
:1002b0001f003700e284440054a0b4009905ba003e
:1002c000e284440054a0b4009906ba00e2844400d9
:1002d00054a0b4000006eb00476fde00fd07b2003b
:1002e000ae018800636ce10003003a00eaff0700fa
:1002f0000000eb000e003700606ce10008003a00df
:10030000004deb000a05e800020039003420ec0043
:100310000af0a0008b05e900f9ff3e000400370059
:100320006168e100010032000086eb000b0007006d
:1003300019c7ba001905ba000e04e00003003a001c
:100340000a00e000dbff3a0000000600fe07b200f2
:10035000ae0288008a047800f5ff37000cd0a300b5
:10036000e20f4d001c00390089027800354dba00bb
:100370000a05e800020039003420ec000af0a00071
:100380008b05e9000f003200254dba000a05e80090
:10039000020039003420ec000af0a0008b05e900cf
:1003a000080032000c00e0000600320015cdba0053
:1003b0000a05e800020039003420ec000af0a00031
:1003c0008b05e9008984e80054a0b4000b00e0002c
:1003d000e2ff3a00000006009902ba00055d7800cd
:1003e0008b05e900f7ff3200c82ade00055d7800c2
:1003f0008b05e900f3ff32000c00e000f1ff320052
:1004000019ddba00eeff3700620d040000000000a5
:10041000a20b0400000000003600f800809fbe0020
:10042000829fbe00849fbe00869fbe008020a900e0
:100430000000eb00570607004f03be004f02be004e
:100440004f01be004f00be003600f900004006001c
:100450003600f800809fbe00829fbe00849fbe00d1
:10046000869fbe0060a2200080077800e0a32000e5
:10047000000188008040a900100020004506070008
:100480004f03be004f02be004f01be004f00be0032
:100490003600f900004006003600f800809fbe00dc
:1004a000829fbe00849fbe00869fbe008060a90020
:1004b00020002000370607004f03be004f02be0099
:1004c0004f01be004f00be003600f900004006009c
:1004d0003600f800809fbe00829fbe00849fbe0051
:1004e000869fbe008080a9003000200029060700fa
:1004f0004f03be004f02be004f01be004f00be00c2
:100500003600f900004006003600f800809fbe006b
:10051000829fbe00849fbe00869fbe008600a90009
:10052000700020001b0607004f03be004f02be00f4
:100530004f01be004f00be003600f900004006002b
:100540003600f800809fbe00829fbe00849fbe00e0
:10055000869fbe0085e0a900800020000d060700f0
:100560004f03be004f02be004f01be004f00be0051
:100570003600f900004006003600f800809fbe00fb
:10058000829fbe00849fbe00869fbe008900a90096
:1005900000802000a30407004f03be004f02be00ee
:1005a0004f01be004f00be003600f90000400600bb
:1005b0003600f800809fbe00829fbe00849fbe0070
:1005c000869fbe00881f78008a20a900f85280000c
:1005d0000800e000130032009800780028b890006e
:1005e000e30f50005b00320015003600e50f5000ad
:1005f000840032002b003100110078001018a30095
:1006000008003a00b100900068e091000080fb0013
:10061000000040000000a0008008780020002000ba
:1006200020bc98004f0478004f03be004f02be006c
:100630004f01be004f00be003600f900004006002a
:10064000e10f500059003200e20f5000f5ff3a0070
:10065000110090001000e0008400350028e89100af
:100660000004e000ad003a0068e891000004e000fa
:1006700042003200110078001030a000500020002d
:1006800020bc98004f0478004f03be004f02be000c
:100690004f01be004f00be003600f90000400600ca
:1006a000e7ff3700e60f5000deff3a001100780048
:1006b0001028a300dbff3a007000200020bc980047
:1006c00008b990000200e0000300320018b8900062
:1006d0008000eb000200010038e09100a8e09100ea
:1006e00080cf5000b0003200e2c0b3000440bc0034
:1006f0008280e800620e2000020144008101440073
:1007000006000900331978000000e8006f0060005f
:1007100030e499000040eb0060f4990070f4990017
:100720001000200020bc980018007800100078000d
:100730001000a0004f0478004f03be004f02be001f
:100740004f01be004f00be003600f9000040060019
:10075000bbff3700110090001000e000430035009f
:1007600068f0910028e99100824f50007e00390026
:1007700068e891000004e0005c003a001100780095
:100780001020a0006000200020bc98004f047800da
:100790004f03be004f02be004f01be004f00be001f
:1007a0003600f90000400600a5ff37001100780070
:1007b0001008a3009bff3a00b100900068e0910090
:1007c0000080fb000000400068e991000281fb000e
:1007d0000201ea004f11de008208700020002000b4
:1007e00020bc98004f0478004f03be004f02be00ab
:1007f0004f01be004f00be003600f9000040060069
:100800008fff3700110090001018a30085ff320001
:1008100078f0910041019000120278000081fb0005
:10082000e8b19000847179000040e80070f499000c
:1008300068e99100824f50001e00310011007800dd
:100840001050a1001040a0001030a0004f0478000c
:100850004f03be004f02be004f01be004f00be005e
:100860003600f9000040060075ff370011007800df
:100870001020a0006000200020bc980008b9900063
:100880000200e00067ff320018b89000110020005d
:10089000020001004f0478004f03be004f02be006b
:1008a0004f01be004f00be003600f90000400600b8
:1008b00063ff3700110078001050a0001040a00026
:1008c0001020a0006000200020bc98004f04780099
:1008d0004f03be004f02be004f01be004f00be00de
:1008e0003600f9000040060055ff3700110078007f
:1008f0001010a0004000200020bc98004f04780099
:100900004f03be004f02be004f01be004f00be00ad
:100910003600f9000040060049ff3700b1009000a2
:1009200068f091000081fb00c8b19000634179003c
:100930000281fb00820878000040e80060f4990022
:100940003000200020bc98004f0478004f03be0008
:100950004f02be004f01be004f00be003600f9003e
:100960000040060036ff3700b10090000081fb0018
:10097000c8b19000634179000281fb0082087800d1
:100980000040e80060f499004f0478004f03be0077
:100990004f02be004f01be004f00be003600f900fe
:1009a0000040060026ff37000040eb0040e49900bd
:1009b0004f0478004f03be004f02be004f01be003f
:1009c0004f00be003600f900004006001cff370053
:1009d0003600f800809fbe00829fbe00849fbe004c
:1009e000869fbe00889fbe008a1f78008b60a9008a
:1009f00009a6200099447800e1cf44001b00320092
:100a0000985280000804e8009852880061cabf002c
:100a10000080fb008000eb008a3e20000a00b80046
:100a200042062000030020002f000700544ae20085
:100a300016003200800f5400050039006de2a90055
:100a400091e2a900a1e1a900546aef00522aef0047
:100a5000b05280000000e00004003200e10f5000be
:100a6000140036000000e900b05288004f057800fd
:100a70004f04be004f03be004f02be004f01be0038
:100a80004f00be003600f90000400600000555008a
:100a90008a0f5400eeff39000181290009407800d7
:100aa0004202070010c0b30054eab700522aef0018
:100ab000e7ff3700af0207004f0578004f04be0084
:100ac0004f03be004f02be004f01be004f00be00ec
:100ad0003600f90000400600ecff37000040da0065
:100ae0000000fe00000005006022b80006022000a1
:100af0000000d0008180d2000482d2008582d20022
:100b00000000a0000202520083825a00030031005c
:100b10000202420083824a000000a1000603e900ad
:080b2000f3ff3a00000006009b
:020000040000fa
:100b280074060000780600008000000074060000cb
:100b38007806000000010000740600007806000036
:100b480000020000b0060000b40600000200000029
:100b5800b0060000b406000001000000c406000052
:100b6800c8060000020000009a0400009e0400006d
:100b78009804000096040000940400009a04000001
:100b88009e040000980400009604000094040000ed
:0c0b980051530000575600005554000057
:020000040000fa
:100ba400889fbe008a9fbe00000578009a049000ca
:100bb40048c1b30009007800750107000000e00097
:100bc400060032000844e900faff3a000040eb0056
:100bd4004f05be004f04be00000006009a4090007e
:100be40081c04000090078009f010700800578005b
:100bf400090078008a0107000b00e00006003200bb
:100c040000e82300010020004b0407000844e90029
:100c1400e8ff3a00edff370010c0b3004f05be00f7
:100c24004f04be0000000600ecff370011009800de
:100c34000274a1001240980011c0b300014878006a
:100c4400000006000048eb008000eb001100980053
:100c540000000600889fbe008a9fbe000004780042
:100c64008144780082457800100020000800e000ec
:100c7400020032001804e00003003a004f05be00f1
:100c84004f04be0000000600180590000a0078001a
:100c94003f01070080007800200020000100e000f0
:100ca400f6ff3a009840900081c040000a007800a6
:100cb4006d0107000000e00005003a00894078005b
:100cc4000a007800680107000000e0000700320015
:100cd4000a00780052010700100020004f05be00f2
:100ce4004f04be0000000600e7ff37008b40780089
:100cf4000a0078005c0107000000e000f4ff3a00fd
:100d04000a00780046010700001027002100200097
:100d14000904070008007800a1ff0700804078005c
:100d24000000eb000104e000d4ff3a0020002000a2
:100d34004f05be004f04be0000000600d2ff37007e
:100d4400889fbe008a9fbe00000478008145780019
:100d540082047800100020000800e0000b0032003c
:100d64001804e000090032000900e0000700320026
:100d7400180590000a00780005010700800078003b
:100d8400200020000100e000030032004f05be00f7
:100d94004f04be00000006009840900081c040004f
:100da4000a007800300107000000e00005003a0066
:100db4008b4078000a0078002b0107000000e00057
:100dc400070032000a007800150107001000200017
:100dd4004f05be004f04be0000000600eeff3700c2
:100de4000a007800fc0007000000e000f5ff3a006c
:100df400984090008140d0000104a0000a007800cf
:100e0400190107000000e000eeff3a000041eb008a
:100e1400890078000a007800350107000000e0002e
:100e2400e8ff3a000a007800fd0007000000eb002c
:100e34004f05be004f04be0000000600d6ff370079
:100e4400889fbe008a9fbe008c1f78000004780033
:100e54000145780082047800834578001000200062
:100e64000800e000040032000900e0000200320043
:100e74000b04e00004003a004f0678004f05be0062
:100e84004f04be0000000600180690000c00780015
:100e9400bf00070080007800200020000100e0006f
:100ea400f5ff3a009840900081c040000c007800a3
:100eb400ed0007000000e00005003a008a407800d9
:100ec4000c007800e80007000000e0000800320091
:100ed4000c007800d2000700100020004f067800b4
:100ee4004f05be004f04be0000000600e6ff3700b9
:100ef4000c007800b80007000000e000f4ff3a009e
:100f0400984090008140d0000104a0000c007800bb
:100f1400d50007000000e000edff3a000b85fb0060
:100f24000a05e9000004eb0012c0b3008a0f540064
:100f3400010035000041eb00888044000c0078007b
:100f4400eb0007000000e000e1ff3a000804e800bd
:100f540088cf5500f4ff3e000c007800b000070075
:100f64000000eb004f0678004f05be004f04be00a2
:100f740000000600c4ff3700e4874700889fbe00d6
:100f84008a9fbe008c9fbe008e1f780000047800ec
:100f9400100020000800e0003b0032000200e000e6
:100fa400390032000304e000370032009805900055
:100fb4000205780081f79f00034778000ff097003f
:100fc4006746600080c0b3000c4650008e4f560048
:100fd400010036000e4678000b0078006c00070014
:100fe4000000e0002e003a009840900081c04000cc
:100ff4000b0078009c0007000000e0001f003a008e
:101004008ff097000b007800970007000000e000c5
:101014001a003a008a0678008d047800b9407800f6
:101024000b007800900007000000e00013003a0075
:10103400090578000dc05400804f5600f7ff3e00ac
:101044000b00780076000700001027002100200024
:101054003903070008007800d1fe07000004e0000f
:101064000f0032000c475700150032000ff09700b4
:101074000c40400080f79f00d0ff37000b00780041
:1010840067000700100020004f0778004f06be00dd
:101094004f05be004f04be004f00b1000000060023
:1010a400200020004f0778004f06be004f05be0009
:1010b4004f04be004f00b10000000600f8ff3700e7
:1010c4000000eb004f0778004f06be004f05be003e
:1010d4004f04be004f00b10000000600f0ff3700cf
:1010e400889fbe008a9fbe00000378000205be00f0
:1010f4000401be00010b78006a0cb900205c2800d2
:10110400080240001403980014c0b300444398003c
:101114000100e00002003a00d846a800d866a80002
:101124008800780060847800000ceb00e4804000c4
:10113400e08478000a00be006afe07008101d10045
:101144000081d300828ce90018f0a0000010270071
:1011540021002000f80207004f05be004f04be0026
:10116400000006000000e00008003200c0409000cb
:101174000104e00005003200900090009100780026
:1011840011f0a1008040eb004140980000000600ef
:1011940010009000100178001200a00000352c000f
:1011a400010020001208a300040032006100500076
:1011b400e0805800fbff3a0020000500008070002a
:1011c40000f0a7000000ea000000e9004f00de0084
:1011d4000000d0000000060010009000100178000c
:1011e4001210a00000352c00010020001218a300ea
:1011f4000400320061005000e0805800fbff3a0018
:10120400200005000080700000f0a7000000ea0044
:101214000000e9004f00de000000d00000000600de
:1012240010009000100178001220a00000352c005e
:10123400010020001228a3000400320061005000c5
:10124400e0805800fbff3a00200005000080700099
:1012540000f0a7000000ea000000e9004f00de00f3
:101264000000d00000000600100090003001900043
:101274008180fb00010978009000900002352c0069
:10128400030020001108a300040032006101510092
:10129400e0815900fbff3a002000050020002000f7
:1012a400e00f5100e08f59001000320002352c008d
:1012b4000300200004002400110062000500320035
:1012c40061015100e0815900f3ff32001100620016
:1012d400fbff3a0020002000e00f5100e08f59008e
:1012e40002003200110078004f00de00000006000a
:1012f40090019000130078001030a00013009000bb
:1013040004352c00050020001018a30004003a0046
:1013140061025200e0825a00fbff3a0020000500ff
:1013240020002000e00f5200e08f5a001700320026
:101334004300900010007800804878000204e00028
:1013440013003200130178001250a1001240a000d3
:1013540000352c00010020001248a30005003200d3
:1013640061005000e0805800ecff32001248a300f6
:10137400fbff3a000080700000f0a7000000ea00c4
:101384000000e9004f00de000000d000000006006d
:10139400130178001250a0001240a00000352c0068
:1013a40001002000ecff3700881f7800004478001b
:1013b400010178008001eb000201410083814900b2
:1013c40000402200410f2000c6fd07000000e90094
:1013d400e00c8800e24f54000a0036002015880013
:1013e400c200de00411588006300b9004200de003f
:1013f4006015880091e2a800a1e1a8004f047800dc
:101404000000060000148800c200de0021148800d9
:101414006300b9004200de00401488006de2a800b9
:10142400a1e1a8004f04780000000600f5ff370092
:1014340040592800835b2800900078002001900028
:101444000281ea0091086100900090009108610017
:1014540066004000830f5000f7ff3a00a021ef0020
:101464009621ef009ca1ef00f0fc2f00a021b60014
:10147400a1e1a9006c22ef007222ef0050002000cd
:101484006013880080a2ef008422ef008822ef001e
:101494006de2a9009022ef009622ef0080148800ec
:1014a400a4a2ef00a822ef00ac22ef0091e2a90071
:1014b400ae21ef00a421ef00e0032000500d8800ce
:1014c40000032000ae21b7009b60a8008b60a90038
:1014d400afe1a80000000600889fbe008a1f7800c4
:1014e400004478008204780003457800e54f5400f6
:1014f4001c003e0060592800a45b280010017800fd
:10150400900190008381ea00128961006600400026
:10151400840f5000f9ff3a000840780062c0b3001d
:101524000440bc000280e8004359280063007800ae
:1015340064014100630179001008710008407800db
:1015440099ff070001a620008848780011a6200012
:101554008a487800b9528800522aef0010c0b300bc
:1015640054eab7004f0578004f04be00000006009f
:101574006de2a90091e2a900a1e1a9006059280047
:10158400a35b280090007800100190000281ea001b
:101594009108610066004000830f5000f9ff3a0093
:1015a40060eaef00562aef00546aef0000000600dc
:1015b400881f7800000478000d000900001ceb006f
:1015c400c801b10012449800780044000341780037
:1015d40096fd0700004ceb004f0478000000060065
:1015e400881f7800000478007800440095fd070007
:1015f4000d000900001ceb00c801b1004f04780085
:1016040000000600889fbe00800078000040eb00c8
:101614000100e0000a003200510c90000800e000d4
:1016240007003200915c900008007800d8fe0700a3
:10163400800078000040eb000100e000020032006e
:101644004f04be000000060089c044000800780072
:1016540005ff07008004780008007800f0fe07000a
:1016640009f0a7008904ea000900e9004f00de0040
:101674004f04be0000000600f3ff37001600fa0016
:10168400881f7800000478000040eb000800e000a8
:101694000c003200d80890000100e000090032007c
:1016a4007800440063c1b300788157008040eb00a8
:1016b400e3fd0700800078000040eb000100e0003b
:1016c400030032004f0478000080fa000000060096
:1016d40062004400f88057000700090031187800c0
:1016e4008ff89700c808dd001ff897000080fb0002
:1016f40001007000100c9800aff89700c808dd00d6
:101704003ff897000080fb0001007000200c980057
:10171400cff89700c808dd005ff897000080fb0051
:1017240001007000300c980010c0b300004c780029
:101734004f0478000080fa0000000600e4ff370040
:101744000100e000020032000048eb000000060047
:10175400e20040007c01400007000900b218780054
:10176400406990004811dd00d06890008180fb0042
:101774008280700011089800606990004811dd00b3
:10178400f06890008180fb0082807000210898003e
:10179400007190004811dd00907090008180fb0082
:1017a400828070003108980011c0b30001487800ad
:1017b40000000600889fbe008a9fbe008c9fbe006a
:1017c4000005be0096000900001deb00ea12b100fe
:1017d4000b0d7800e30445000004eb00cd5c280009
:1017e4002c032000884c78006d417c000cc0b900ab
:1017f4007a004000000045008b007800e6000700f6
:101804000804e8002903b000e60f5400f5ff3a008d
:101814004f06be004f05be004f04be000000060088
:10182400889fbe008a1f7800800478000004eb00c3
:101834002a0320000ac0b9008082e8007e0140002b
:10184400028144007a004000008044008582440004
:1018540024ba200063c1b3008040eb00a800070055
:101864000804e800e60f5400f2ff3a004f05780040
:101874004f04be000000060001427800e54f52000c
:1018840008003e000483fb002103200001b3b900db
:10189400860078008182e800e0c27a000504e00056
:1018a40001003a0000000600f8804000e080780063
:1018b4000440780008ff37006426ef007826ef0024
:1018c4008c26ef00a026ef00b426ef00c826ef0018
:1018d400dc26ef00100020000033880074a6ef001f
:1018e4000100270041348800f1ff2000e134880022
:1018f400f10f200081358800f1072000213688008f
:10190400c13c2000c13688007226ef008626ef0015
:101914009a26ef00ae26ef00c226ef00d626ef008f
:10192400ea26ef007026ef008426ef009826ef00e9
:10193400ac26ef00c026ef00d426ef00e826ef0027
:101944007226ef008626ef009a26ef00ae26ef00ff
:10195400c226ef00d626ef00ea26ef007026ef003d
:101964008426ef009826ef00ac26ef00c026ef0097
:10197400d426ef00e826ef006626ef007a26ef0073
:101984008e26ef00a226ef00b626ef00ca26ef004f
:10199400de26ef0040338800c0ff2f00e0338800cc
:1019a400000023008034880000cc2000203588000b
:1019b400e0012000c0358800003c2000003788008a
:1019c400000006007b0009000018eb00800fb10046
:1019d40001087800910178008009eb00a1009000d3
:1019e4008208780013f0a0009a20a8008a20a90099
:1019f400f052880000000600889fbe0030e391008a
:101a040020e291000482fb008401e800ef81610080
:101a14008682fb000041eb00858f510020003200dc
:101a24006e24b90008024000620142000600090069
:101a340031197800e100b10023e09900c0e0910081
:101a440012c0b3000104e00015003a0042e099001e
:101a5400834f5300150032006e29b9008280e800dc
:101a6400630e2000830140000101400006000900cc
:101a7400b21978008502e800ef82620035e099002f
:101a84008040eb0061f0990071f099001200200091
:101a940022b8980010007800100078001000a00010
:101aa400024078004f04be000000060041e09900a7
:101ab400024078004f04be0000000600fbff370020
:101ac400300190000200e000070032000100e00055
:101ad40006003200e18f5000070032004000900001
:101ae40021002000020001000000060040009000d8
:101af4008000eb0002400100400090000240010021
:101b04000e00fa000043eb000000e0000400320085
:101b14001004e000020032000304e00003003a0075
:101b2400064078000080fa000000060006a52000a8
:101b3400014b78003052880042528800a1a4200052
:101b4400834878006452880075528800904390005e
:101b5400a7f79f0001a52000a1bf9f0011c0b300fb
:101b6400e1f79f00c2bf9f00a3ff9f0021d6200082
:101b7400e1bf9f0061a42000f1bf9f00100090000e
:101b8400ee8057009cff0700004078000080fa00b8
:101b940000000600e5ff37000274a100124098001f
:101ba4001100980011c0b30001487800000006003d
:101bb40022012000815b2800e092200081ff0700c1
:101bc400e192200000802000fafe070018fe0700c2
:101bd400a221ef009a21ef00a0862100f00c8800da
:101be40000032000a221b7008900a9009900a800e1
:101bf400a3e1a80083e0a80000000600ecff0700b2
:101c04000080200006ff07003448e20007003a0085
:101c140000a026008101200047000700008020006a
:101c2400fffe07003448e200f9ff320063c4b3004a
:101c34008238210011c0b300008020000eff07008d
:101c440000802d00815b20003b00070000a02600df
:101c54008101200038000700f0ff37000000230056
:101c6400100888000621ef006821ef006a21ef00c8
:101c74000c21ef000e21ef007821ef007c21ef0012
:101c84007e21ef008021ef008221ef008421ef000c
:101c94008621ef000000eb00a2092000810720004c
:101ca4001310200081497800824978008049780027
:101cb400720520006104200003102000814978008f
:0c1cc4008249780080497800000006008a
:020000040000fa
:101cd000260a000020000000800000005c0a0000ce
:101ce0000200000082000000ffff0000580a000010
:101cf0000400000080000000000800002602000030
:101d0000800000005e0a0000020000008000000069
:101d1000460a00000c00000080000000600a00007d
:101d20000200000082000000ff640000520a000070
:0c1d300006000000800000000000000021
:020000040000fa
:101d3c00f03fb1000180b10006003500ee03090050
:101d4c0000000000403fb1000180b100fbff3d00ee
:101d5c001000b000203fb0000200350000800900e8
:081d6c00000000000000060069
:020000040000fa
:101d7400809fbe00ec80570031007800c05288007c
:101d8400110078005aeab7004f00be0000000600b8
:101d9400e05288000000fe0000000600c6fe0700b6
:0c1da40001000700adff37000000060042
:020000040000fa
:020000040002f8
:04be0000ffffff0041
:020000040000fa
:020000040002f8
:04be2000ffffff0021
:020000040000fa
:020000040002f8
:04be300078ffff0098
:020000040000fa
:020000040002f8
:04be3800b7ffff0051
:020000040000fa
:020000040002f8
:04be40009fffff0061
:020000040000fa
:020000040002f8
:04be4800ffffff00f9
:020000040000fa
:020000040002f8
:04be5000dfffff0011
:020000040000fa
:020000040002f8
:04be58000000ff00e7
:020000040000fa
:020000040002f8
:04be60000000ff00df
:020000040000fa
:020000040002f8
:04be68000000ff00d7
:020000040000fa
:020000040002f8
:04be70000000ff00cf
:020000040000fa
:020000040002f8
:04be7800ffffff00c9
:020000040000fa
:020000040002f8
:04be8000ffffff00c1
:00000001FF
