:020000040000fa
:080000000001040000000000f3
:020000040000fa
:040008000c020000e6
:020000040000fa
:04000c004e020000a0
:020000040000fa
:040010008e0200005c
:020000040000fa
:040014002c020000ba
:020000040000fa
:040018006e02000074
:020000040000fa
:04001c0026060000b4
:020000040000fa
:04002000ae0200002c
:020000040000fa
:0400240026060000ac
:020000040000fa
:0400280026060000a8
:020000040000fa
:04002c0026060000a4
:020000040000fa
:0400300026060000a0
:020000040000fa
:04003400260600009c
:020000040000fa
:040038002606000098
:020000040000fa
:04003c002606000094
:020000040000fa
:040040002606000090
:020000040000fa
:04004400260600008c
:020000040000fa
:04004800ce020000e4
:020000040000fa
:04004c002606000084
:020000040000fa
:040050002606000080
:020000040000fa
:04005400260600007c
:020000040000fa
:040058002606000078
:020000040000fa
:04005c002606000074
:020000040000fa
:040060002606000070
:020000040000fa
:04006400260600006c
:020000040000fa
:040068002606000068
:020000040000fa
:04006c00ee020000a0
:020000040000fa
:040070002606000060
:020000040000fa
:04007400260600005c
:020000040000fa
:040078002606000058
:020000040000fa
:04007c002606000054
:020000040000fa
:040080002606000050
:020000040000fa
:04008400260600004c
:020000040000fa
:040088002606000048
:020000040000fa
:04008c002606000044
:020000040000fa
:040090002606000040
:020000040000fa
:0400940094050000cf
:020000040000fa
:040098002606000038
:020000040000fa
:04009c002606000034
:020000040000fa
:0400a0002606000030
:020000040000fa
:0400a400260600002c
:020000040000fa
:0400a8002606000028
:020000040000fa
:0400ac002606000024
:020000040000fa
:0400b0002606000020
:020000040000fa
:0400b400260600001c
:020000040000fa
:0400b8002606000018
:020000040000fa
:0400bc002606000014
:020000040000fa
:0400c0002606000010
:020000040000fa
:0400c400260600000c
:020000040000fa
:0400c8002606000008
:020000040000fa
:0400cc002606000004
:020000040000fa
:0400d0002606000000
:020000040000fa
:0400d40026060000fc
:020000040000fa
:0400d80026060000f8
:020000040000fa
:0400dc0026060000f4
:020000040000fa
:0400e00026060000f0
:020000040000fa
:0400e40026060000ec
:020000040000fa
:0400e80026060000e8
:020000040000fa
:0400ec0026060000e4
:020000040000fa
:0400f00026060000e0
:020000040000fa
:0400f40026060000dc
:020000040000fa
:0400f80026060000d8
:020000040000fa
:0400fc0026060000d4
:020000040000fa
:0401000026060000cf
:020000040000fa
:0401040026060000cb
:020000040000fa
:0401080026060000c7
:020000040000fa
:04010c0026060000c3
:020000040000fa
:0401100026060000bf
:020000040000fa
:0401140026060000bb
:020000040000fa
:0401180026060000b7
:020000040000fa
:04011c0026060000b3
:020000040000fa
:0401200026060000af
:020000040000fa
:0401240026060000ab
:020000040000fa
:0401280026060000a7
:020000040000fa
:04012c0026060000a3
:020000040000fa
:04013000260600009f
:020000040000fa
:04013400260600009b
:020000040000fa
:040138002606000097
:020000040000fa
:04013c002606000093
:020000040000fa
:04014000260600008f
:020000040000fa
:04014400260600008b
:020000040000fa
:040148002606000087
:020000040000fa
:04014c002606000083
:020000040000fa
:04015000260600007f
:020000040000fa
:04015400260600007b
:020000040000fa
:040158002606000077
:020000040000fa
:04015c002606000073
:020000040000fa
:04016000260600006f
:020000040000fa
:04016400260600006b
:020000040000fa
:040168002606000067
:020000040000fa
:04016c002606000063
:020000040000fa
:04017000260600005f
:020000040000fa
:04017400260600005b
:020000040000fa
:040178002606000057
:020000040000fa
:04017c002606000053
:020000040000fa
:04018000260600004f
:020000040000fa
:04018400260600004b
:020000040000fa
:040188002606000047
:020000040000fa
:04018c002606000043
:020000040000fa
:04019000260600003f
:020000040000fa
:04019400260600003b
:020000040000fa
:040198002606000037
:020000040000fa
:04019c002606000033
:020000040000fa
:0401a000260600002f
:020000040000fa
:0401a400260600002b
:020000040000fa
:0401a8002606000027
:020000040000fa
:0401ac002606000023
:020000040000fa
:0401b000260600001f
:020000040000fa
:0401b400260600001b
:020000040000fa
:0401b8002606000017
:020000040000fa
:0401bc002606000013
:020000040000fa
:0401c000260600000f
:020000040000fa
:0401c400260600000b
:020000040000fa
:0401c8002606000007
:020000040000fa
:0401cc002606000003
:020000040000fa
:0401d00026060000ff
:020000040000fa
:0401d40026060000fb
:020000040000fa
:0401d80026060000f7
:020000040000fa
:0401dc0026060000f3
:020000040000fa
:0401e00026060000ef
:020000040000fa
:0401e40026060000eb
:020000040000fa
:0401e80026060000e7
:020000040000fa
:0401ec0026060000e3
:020000040000fa
:0401f00026060000df
:020000040000fa
:0401f40026060000db
:020000040000fa
:0401f80026060000d7
:020000040000fa
:0401fc0026060000d3
:020000040000fa
:100200004fa620000e7f22000e0188000000000093
:10021000000020000000e000020032000001200089
:1002200020028800140007008a0207000000e00096
:1002300003003a00a049210001002000020037001d
:100240000000200001002000810f7000010032003a
:1002500014000700000020000000e000020032004f
:100260000000020000000000361402000000000040
:100270000040da000000fe004440a90040042000d5
:100280000000e00003003200002020009001880000
:100290004440a800000006008a1f78008b1f7800e9
:1002a00000000600a1028800800478000000eb0036
:1002b0001f003700e284440054a0b4009905ba003e
:1002c000e284440054a0b4009906ba00e2844400d9
:1002d00054a0b4000006eb00476fde00fd07b2003b
:1002e000ae018800636ce10003003a00eaff0700fa
:1002f0000000eb000e003700606ce10008003a00df
:10030000004deb000a05e800020039003420ec0043
:100310000af0a0008b05e900f9ff3e000400370059
:100320006168e100010032000086eb000b0007006d
:1003300019c7ba001905ba000e04e00003003a001c
:100340000a00e000dbff3a0000000600fe07b200f2
:10035000ae0288008a047800f5ff37000cd0a300b5
:10036000e20f4d001c00390089027800354dba00bb
:100370000a05e800020039003420ec000af0a00071
:100380008b05e9000f003200254dba000a05e80090
:10039000020039003420ec000af0a0008b05e900cf
:1003a000080032000c00e0000600320015cdba0053
:1003b0000a05e800020039003420ec000af0a00031
:1003c0008b05e9008984e80054a0b4000b00e0002c
:1003d000e2ff3a00000006009902ba00055d7800cd
:1003e0008b05e900f7ff3200c82ade00055d7800c2
:1003f0008b05e900f3ff32000c00e000f1ff320052
:1004000019ddba00eeff37000e13040000000000f3
:1004100010110400000000003600f800809fbe00ac
:10042000829fbe00849fbe00869fbe000000fa002f
:100430008020a9000000eb005c0907000080fa00a2
:100440004f03be004f02be004f01be004f00be0072
:100450003600f900004006003600f800809fbe001c
:10046000829fbe00849fbe00869fbe000000fa00ef
:10047000550907008040a900100020004b09070023
:100480000080fa004f03be004f02be004f01be00c5
:100490004f00be003600f900004006003600f800ac
:1004a000809fbe00829fbe00849fbe00869fbe00cc
:1004b0000000fa008060a900200020003b0907002e
:1004c0000080fa004f03be004f02be004f01be0085
:1004d0004f00be003600f900004006003600f8006c
:1004e000809fbe00829fbe00849fbe00869fbe008c
:1004f0000000fa008080a900300020002b090700ce
:100500000080fa004f03be004f02be004f01be0044
:100510004f00be003600f900004006003600f8002b
:10052000809fbe00829fbe00849fbe00869fbe004b
:100530000000fa008600a900700020001b090700d7
:100540000080fa004f03be004f02be004f01be0004
:100550004f00be003600f900004006003600f800eb
:10056000809fbe00829fbe00849fbe00869fbe000b
:100570000000fa0085e0a900800020000b090700b8
:100580000080fa004f03be004f02be004f01be00c4
:100590004f00be003600f900004006003600f800ab
:1005a000809fbe00829fbe00849fbe00869fbe00cb
:1005b0000000fa008900a900808f2000fb060700d8
:1005c0000080fa004f03be004f02be004f01be0084
:1005d0004f00be003600f900004006003600f8006b
:1005e000809fbe00829fbe00849fbe00869fbe008b
:1005f0000400fa008a20a900f05280000000e00008
:1006000035013200f1528000010f78001e007800a1
:1006100090007800110798001e00780020b8900024
:10062000e30f500071003200e30f500005003e0060
:10063000e10f50000a003200e20f500021003200aa
:1006400032013700e50f5000c3003200e50f5000c3
:10065000af003900e60f5000080132002b013700cf
:100660001e0090001000780010007800610060000b
:10067000004078000004e00019013a001e009000dc
:10068000b00090001e00780060e091000080fb0048
:1006900000004000000178001e00780060e8910032
:1006a0000080fb000000ea004f00de000200700046
:1006b000800878001e0078002100200021b89800f2
:1006c000120137001e00900010009000100078000a
:1006d0000000e00015003d001e00900010007800b2
:1006e0009e00900091007800910078000120a00009
:1006f000010878001e0078006100200021b89800f1
:100700001e00780000b890000000e000f600320003
:100710001e00780000b990001e00780010b890000c
:100720001100200002000100f80037001e007800d0
:1007300020e891000004e000120032001e0090004a
:10074000b00090001e007800c0b190001e0078003c
:1007500060f091000081fb000281410012417800ad
:100760000281fb00820878008040e8001e007800cb
:1007700061f099001e0078003100200021b8980037
:10078000e20037001e00780060e891000004e000fd
:100790000b0032001e009000100078009e009000b8
:1007a00091007800910078000130a00001087800e5
:1007b0001e0078005100200021b89800d3003700b7
:1007c0001e009000100078009e00900091007800bc
:1007d000910078000120a000010878001e00780038
:1007e0006100200021b89800c80037001e0090006a
:1007f00010009000100078000000e00015003d009f
:100800001e009000100078009e009000910078007b
:10081000910078000120a000010878001e007800f7
:100820006100200021b898001e00780000b89000f8
:100830000000e000ae0032001e00780000b9900019
:100840001e00780010b89000110020000200010086
:10085000ae0037001e007800e0f091001e00780026
:1008600020e8910080cf50000f0031001e00900062
:10087000b00090001e007800c0b190001e0078000b
:1008800060f091000081fb0002814100124178007c
:100890000281fb00820878008040e8001e0078009a
:1008a00061f09900990037001e00780060e891001f
:1008b0000004e0000b0032001e00900010007800e1
:1008c0009e00900091007800910078000110a00037
:1008d000010878001e0078004100200021b898002f
:1008e0008a0037001e009000100078009e009000e3
:1008f00091007800910078000120a00001087800a4
:100900001e0078006100200021b898007f003700a9
:100910001e00900010007800100078006200600057
:100920000000e00074003a001e009000b00090004b
:100930001e00780060e091000080fb000000400095
:100940000000a000800878001e0078002100200030
:1009500021b898006d0037001e0090001000900034
:1009600010007800620060000000e00064003200c7
:100970001e00780060b190001e00780070f09100b9
:100980008080fb00810041001e0190004201900028
:100990001201780002417800824878008040e80027
:1009a0001e00780071f099001e007800f0f09100b0
:1009b0001e00780060e8910080cf500016003100e2
:1009c0001e009000100078009e00900091007800ba
:1009d000910078000150a100010878001e009000ed
:1009e000100078009e00900091007800910078003f
:1009f0000140a000010878001e009000100078005f
:100a00009e00900091007800910078000130a000d5
:100a1000010878003d0037001e00900010007800ab
:100a20009e00900091007800910078000150a00095
:100a3000010878001e009000100078009e009000d1
:100a400091007800910078000140a0000108780032
:100a50001e009000100078009e0090009100780029
:100a6000910078000120a000010878001e007800a5
:100a70006100200021b89800240037001e0090007b
:100a80001000780010007800640060000000e000b2
:100a90001d003a001e0078007100200021b8980067
:100aa0001e00780000b890000000e0000600320050
:100ab0001e00780000b990001e00780010b8900069
:100ac0008000eb00020001001e00780049050700cd
:100ad000000000000d003700000000000b00370090
:100ae0000000000009003700000000000700370088
:100af0000000000005003700000000000300370080
:100b00000000000001003700000000000080fa0033
:100b10004f03be004f02be004f01be004f00be009b
:100b20003600f900004006003600f800809fbe0045
:100b3000829fbe00849fbe00869fbe000400fa0014
:100b40008b60a90062cabf00e14f4000370032004d
:100b5000a05280000000e800a052880063cabf00d5
:100b60000080fb008000eb00823e20000289b9007b
:100b7000020178006002b90084017800030141009d
:100b8000833e20000300b80001014100820078008c
:100b900042062000030020002f000700000f78000d
:100ba000803e20001e0050001007980056cabf006b
:100bb0000004e00007003200a05280009e0f5000a9
:100bc0000e00390066040700566aef00542aef0051
:100bd0000a003700a15280001e009000808f500054
:100be0000600390062cabf000181290030040700f5
:100bf00010c0b30056eab700542aef0090528000ac
:100c00000000e0000a00320090528000e10f500026
:100c100004003600905280000000e90090528800e5
:100c200003003700710407000100370000000000d6
:100c30000080fa004f03be004f02be004f01be000d
:100c40004f00be003600f900004006000040da0008
:100c50000000fe00000005006022b800060220002f
:100c60000000d0008180d2000482d2008582d200b0
:100c70000000a0000202520083825a0003003100eb
:100c80000202420083824a000000a1000603e9003c
:100c9000f3ff3a00000006008001780002003700f0
:100ca000b15978000201e9000200e000fcff3a00bf
:100cb00000000600889fbe008a9fbe008004780066
:100cc0000200e0005b00320001407800814c7800b7
:100cd00082814400f1f99f00e20f51005500360077
:100ce00091449800a1449800e1f99f00d1f99f0038
:100cf000e60f51004f003600b1449800c1f99f0043
:100d0000e80f51004b0036000905ea006305650055
:100d10000a8444000a055100c1ff2f000105650047
:100d20000080fb008000eb00121020001310200058
:100d300044000700008cbe000a01440060b99f0017
:100d400071b99f00e80f55003a0036002004980062
:100d500031049800400498005104980020b99f0085
:100d600031b99f0040b99f0051b99f00f80f55005d
:100d7000300036006004980071049800000c980060
:100d8000110c9800200c9800310c9800400c980031
:100d9000510c980020b19f0031b19f0040b19f00dd
:100da00051b19f0060b19f0071b19f0000b99f00d9
:100db00011b99f00640164007801410002044400fd
:100dc000020555006011b8000203be000002be001b
:100dd0000403be006022b80000007200818072002f
:100de000020173008381730010003700009cbe0075
:100df0000294be00400498005104980062049800d8
:100e000073049800000c9800110c9800220c9800b4
:100e1000330c9800400c9800510c9800620c98001c
:100e2000730c98000a02b1000802b000ff0f5500d1
:100e3000eeff3e00090078004f05be004f04be00e3
:100e400000000600020ab900001bb9000200b80049
:0c0e500081004200810043000000060009
:020000040000fa
:100e5c007406000078060000800000007406000094
:100e6c0078060000000100007406000078060000ff
:100e7c0000020000b0060000b406000002000000f2
:100e8c00b0060000b406000001000000c40600001b
:100e9c00c8060000020000009a0400009e04000036
:100eac009804000096040000940400009a040000ca
:100ebc009e040000980400009604000094040000b6
:100ecc00515200005354000055560000515300007d
:080edc005756000055540000b8
:020000040000fa
:100ee4000800fa00300798003e009000900090003f
:100ef400110798000040eb00004f780018003700fd
:100f04001e009000260207000000e00012003a00d4
:100f14003e00900010409000004040008040780067
:100f24001e00900066020700200798001e00900033
:100f34004b0207002e0090000000e00002003a007f
:100f440010c0b3000a00370000e8230001002000ad
:100f5400a306070001003700000000001e4fe80050
:100f64001e407800f34f5000e5ff36000040eb00d0
:100f74000080fa00000006000600fa00000f780066
:100f840011079800424798001e0078009e009000c8
:100f9400110098004e409000804078000174a10038
:100fa4001e007800114098001e00780011c0b300a4
:100fb400014878000080fa00000006000200fa00f0
:100fc400000f78001e0078008040eb000148780094
:100fd4001e0078008000eb00110098000080fa00e9
:100fe400000006000600fa00100798004147980028
:100ff400524798001e0090000000e00005003200f7
:101004001e009000104078000004a2000004e000dc
:101014000200320010002000310037001e00900052
:1010240090009000010f78001e007800dc0107009a
:101034000000e000020032002000200028003700f9
:101044001e00900010409000004040008040780056
:101054001e0078001a0207000000e00018003a00a1
:10106400ce4090001e007800150207000000e0004a
:1010740015003a00de4090001e00780010020700c0
:101084000000e00012003a001e007800f40107009e
:101094000010270021002000510607001e009000c8
:1010a4008fff07000004a2000004e00002003200e9
:1010b400200020000a0037000000eb000800370081
:1010c40000000000030037000000000001003700aa
:1010d400000000001e007800e1010700100020005d
:1010e4000080fa00000006000800fa0010079800cb
:1010f40041479800320798001e0090000000e0006d
:10110400080032001e009000104078000004a20085
:101114000004e00003003a003e0090000000e000fc
:1011240002003a00100020003b0037001e0090002f
:1011340090009000010f78001e00780098010700cd
:101144000000e000020032002000200032003700de
:101154001e00900010409000004040008040780045
:101164001e007800d60107000000e0001e003a00cf
:10117400ce4090001e007800d10107000000e0007e
:101184001b003a001e0078009d0107000000e000eb
:1011940019003a001e009000104090000080fb00ef
:1011a40000004000004078000004a0008040780067
:1011b4001e007800c20107000000e00010003a00a1
:1011c4000041eb00be0090001e007800e301070020
:1011d4000000e0000c003a001e007800a0010700a7
:1011e4000000eb000c00370000000000070037008f
:1011f4000000000005003700000000000300370075
:101204000000000001003700000000001e0078000c
:1012140093010700100020000080fa00000006007f
:101224000e00fa0030079800014f9800520798000a
:10123400434f98003e0090000000e000060032009a
:101244005e0090000000e000030032004e48900071
:101254000004e00002003a00100020004f003700b4
:101264003e00900090009000110798001e0090002e
:101274004b0107000000e0000200320020002000c3
:10128400460037003e0090001040900000404000af
:10129400804078001e009000890107000000e000f3
:1012a40032003a008e4890001e009000840107002e
:1012b4000000e0002f003a001e00900050010700db
:1012c4000000e0002d003a003e0090001040900025
:1012d4000080fb0000004000004078000004a000f3
:1012e400804078001e009000750107000000e000b7
:1012f40024003a000040eb00004f78001300370050
:101304001e81fb004e4890000080fb008000e90035
:1013140010c0b300810f5100010035000040eb0004
:10132400404798001e80fb00de00900000804000d3
:101334004e419000800078001e0090008701070055
:101344000000e00011003a001e4fe8004e489000f3
:101354009e40780080cf5000e9ff39001e009000c5
:101364003f0107000000eb000c0037000000000004
:1013740007003700000000000500370000000000ef
:1013840003003700000000000100370000000000e7
:101394001e00900032010700100020000080fa00b7
:1013a400000006001200fa0050079800414f980010
:1013b40072079800035798005e0090000000e00058
:1013c400060032007e0090000000e00003003200be
:1013d4000e5090000004e00002003a0010002000cb
:1013e4005d0037005e009000900090003107980087
:1013f4008e509000014f7800ce489000114798001d
:10140400fe00900011079800460037001e4090002f
:1014140067406000004f980081c0b3000e48900000
:1014240000c05000404798004e4090009e4f50002e
:10143400020036009e407800414798003e0090002c
:10144400d70007000000e000020032002000200066
:10145400410037005e0090001040900000404000c2
:10146400804078003e009000150107000000e00075
:1014740031003a009e4090003e00900010010700a9
:101484000000e0002e003a000040eb0050479800b6
:101494000d0037001e009000104078009e00900060
:1014a4008100e80011079800804078003e00900019
:1014b400030107000000e00023003a005e409000b2
:1014c4000040e80050479800de4090004e409000f5
:1014d40080cf5000efff39003e009000e00007008d
:1014e40000102700210020003d0507005e00900049
:1014f4007bfe07000004a2000004e00002003200aa
:1015040020002000140037009e4090004e409000c0
:1015140000c04000104798009e4078004e40900064
:1015240000cf50001e4078000004e000b7ff3a00ee
:101534000000eb0008003700000000000300370043
:101544000000000001003700000000003e00900091
:10155400c3000700100020000080fa00000006000d
:101564000800fa00200798003107980000352c0085
:1015740001002000008fbe00000000002e0090003b
:10158400900078003e009000008060000000e000c1
:10159400080032000081eb008081eb001e0f410047
:1015a4005e9749001e00be00e00f5000e08f580017
:1015b400f2ff3a001e0090001e00700000f0a70029
:1015c4000000ea000000ea004f00de00004078005e
:1015d4000080fa00000006000800fa0020079800c6
:1015e4003107980000352c0001002000008fbe0058
:1015f400000000002e009000900078003e00900053
:10160400008060000000e00008003a000081eb0068
:101614008081eb001e0f41005e9749001e00be0052
:10162400e00f5000e08f5800f2ff3a001e009000d7
:101634001e00700000f0a7000000ea000000ea00ad
:101644004f00de00004078000080fa000000060031
:101654000e00fa00881f78001007980021079800f0
:1016640032079800430798005407980065079800cc
:101674002e0090006a00b90080007800c075280030
:10168400008f40001e009000ae009000010878001a
:101694001e0090009e007800110098001e0090002b
:1016a40011c0b300414098002e0090000000e000fb
:1016b40002003a00d846a800d866a8001e007800a8
:1016c400100078008000eb00010878001e0078000c
:1016d400200490005e019000ee0190003e00900016
:1016e400ce0090005bfd07008100d1000080d30094
:1016f400000078000080e900000c78001e007800eb
:10170400100078009e007800910078009100780025
:1017140001f0a0000108780000102700210020003b
:10172400af0407004f0478000080fa0000000600b0
:101734000200fa00000f78001e0078000000e000ac
:10174400120032001e007800404090000004a20005
:101754000004e0000f003a001e0078001000900022
:10176400100078009e0078009100900091007800ad
:101774009100780001f0a100010878001e007800b3
:101784008040eb0041409800030037000000000057
:1017940001003700000000000080fa00000006008d
:1017a4000400fa00100798001e00900090009000ba
:1017b400010f78001e007800100078009e00780069
:1017c40091007800910078000100a00001087800e1
:1017d4001e007800100078001100200060ff070050
:1017e4000004a2000004e0000200320020002000f7
:1017f400010037000000eb000080fa000000060042
:101804000400fa00100798001e0090009000900059
:10181400010f78001e007800100078009e00780008
:1018240091007800910078000110a0000108780070
:101834001e007800100078002100200048ff0700f7
:101844000004a2000004e000020032002000200096
:10185400010037000000eb000080fa0000000600e1
:101864000400fa00100798001e00900090009000f9
:10187400010f78001e007800100078009e007800a8
:1018840091007800910078000120a0000108780000
:101894001e007800100078004100200030ff07008f
:1018a4000004a2000004e000020032002000200036
:1018b400010037000000eb000080fa000000060081
:1018c4000600fa0010079800414798001e00900097
:1018d40090009000010f78001e0078003000900006
:1018e400ce4090008180fb00010878001e00780043
:1018f400100090001100200019ff07000004a2004e
:101904000004e00002003200200020001100370033
:101914001e007800100090000100240010ff070052
:101924000004a2000004e0000200320020002000b5
:10193400080037001e0078001000900010007800a6
:101944000000e00002003d0010002000010037000c
:101954000000eb000080fa00000006000800fa0016
:101964001007980021079800624798001e00900015
:1019740090009000010f78001e007800100078009d
:101984009e00780091007800910078000130a0005a
:10199400010878001e00780010009000210020004b
:1019a4000dff07000004a2000004e0000200320062
:1019b40020002000290037001e007800400090001d
:1019c40010007800804078002e00900001487800d4
:1019d4006e4090000004e000080032001e00780011
:1019e400100078009e007800910078009100780043
:1019f4000150a10001087800070037001e0078009c
:101a0400100078009e007800910078009100780022
:101a14000150a000010878001e0078001000780032
:101a24009e00780091007800910078000140a000a9
:101a3400010878001e0078001000780001012000e1
:101a4400c7fe07000004a2000004e0000200320008
:101a540020002000010037000000eb000080fa00a5
:101a6400000006000200fa00004f78001e80fb0010
:101a74006600b900000078008080e800e072280069
:101a840000804000100178001e80fb006600b90051
:101a9400000078008080e800e072280000804000a8
:101aa40010007800900178001e80fb006600b900e9
:101ab40000007800e4004000e0722800008040004c
:101ac4001000780003007000000978000080fa001c
:101ad400000006000200fa00004f78001e80fb00a0
:101ae4006600b900000078008080e800e0722800f9
:101af40000804000100178001e80fb006600b900e1
:101b0400000078008080e800e07228000080400037
:101b140010007800900178001e80fb006600b90078
:101b240000007800e4004000e072280000804000db
:101b3400100078000080ea0000806100000978004d
:101b44000080fa00000006000200fa000040eb00ea
:101b5400004f7800030037001e407800ddff0700c7
:101b64001e4fe8001e407800e54f5000faff360093
:101b74000080fa00000006000200fa000040eb00ba
:101b8400004f78001a0037001e80fb006600b90081
:101b940080007800e0722800008040001001780086
:101ba4001e80fb006600b90080007800e072280007
:101bb4000080400010007800900178001e80fb0037
:101bc4006600b90000007800e4004000e0722800dc
:101bd40000804000100078000080ea00008061006e
:101be400000978001e407800baff07001e4fe80085
:101bf4001e407800e54f5000e3ff3600a021ef00bf
:101c04009621ef000080eb00e00c8800010d8000bd
:101c1400f0fc2f0000806000000d8800a1e1a90005
:101c24006c22ef007222ef00500020006013880045
:101c340060138000601388000080eb0000148800ab
:101c44008422ef008822ef006de2a9009022ef00c9
:101c54009622ef0050002000801488008014800039
:101c6400801488000080eb0020158800a822ef0073
:101c7400ac22ef0091e2a900ae21ef00a421ef0015
:101c8400e0032000500d8800710d80000003200047
:101c940001007000700d88009b60a8008b60a90093
:101ca400afe1a8000080fa00000006000600fa0078
:101cb40020479800210798002e0090008000eb0038
:101cc40000004000818048000001be000040220066
:101cd400410f2000dffb070000007800000fe9003f
:101ce4009e007800e10c88002e409000e24f5000e6
:101cf4000c003e009e007800011488001e0078004d
:101d04004200de00201488001e0078006300b90041
:101d1400000078004200de00401488006de2a80054
:101d24000b0037009e007800211588001e00780003
:101d34004200de00401588001e0078006300b900f0
:101d4400000078004200de006015880091e2a800df
:101d5400a1e1a8000080fa00000006000000fa00db
:101d64006de2a90091e2a900a1e1a9000080fa00b6
:101d7400000006000800fa00004f780011079800e0
:101d840022079800634798001e407800e54f5000f2
:101d940012003e006cff07001e40780031ff070070
:101da4009e0090001e407800c0ff07001e4178008e
:101db40021a62000824878006e41900031a62000c0
:101dc40082487800ae00900091528800542aef00b7
:101dd40010c0b30056eab70001003700000000004d
:101de4000080fa00000006000000fa00dbff070094
:101df40055ff070000c0eb0062eab700522aef006b
:101e0400566aef000080fa00000006000200fa00a3
:101e1400000f78001e007800a0e091001e007800fa
:101e240030e0910000c068000080fb000000e90081
:101e34004f00de00004078000080fa000000060039
:101e44000200fa00000f78001e00780020e09100e4
:101e54000080fb008000e800f000280000806000a3
:101e64000000e00004003d000000e90001ff2f0035
:101e7400008070000000e800800078001e007800f8
:101e840030e091000080fb000080680000f0a700b3
:101e94000000ea000000e9004f00de000040780086
:101ea4000080fa00000006000600fa00000f780027
:101eb4001107980022079800820f20008000eb0091
:101ec4001e0078007afb07001e0078009e00900038
:101ed400010878001e009000100078008000eb00dc
:101ee400010878001e00900020009000ae009000d1
:101ef400010878001e009000100078009e009000f9
:101f0400910078009100780001f0a00001087800a9
:101f14009a20a8008a20a9009e007800f152880027
:101f24000080fa00000006000400fa00000f7800a8
:101f3400110798001e007800c1ff07000004e000ac
:101f4400020032000040eb00270037001e0078003a
:101f540020e091000080fb001e0178006e00b900b3
:101f640000007800000041000080e8009e0090001e
:101f74000600090031187800e000b100e100b1006a
:101f84001e00780020e091000080fb008000e80043
:101f9400f0002800008060000000e00004003d0024
:101fa4000000e90001ff2f00008070000000e8003d
:101fb400804078001e00780021e099001e0078001f
:101fc40040e091000004a2000004e000050032009b
:101fd4001e00780011c0b30041e099001e00780093
:101fe4000300070010c0b3000080fa0000000600e0
:101ff4000400fa00100798001e00900083ff0700f9
:102004000004e000040032001e0090008040eb0059
:1020140041e099002e0037001e00900030e091004e
:102024000080fb001e0190009e0190006e00b9002c
:10203400000078000080e800610e2000810041006b
:102044000082410006000900b41878001e009000c8
:1020540030e091000080fb008000e800f0002800e0
:10206400008060000000e00004003d000000e90082
:1020740001ff2f00008070000000e800804078001d
:102084001e00900031e099001e0090008040eb009b
:1020940061f099001e0090008040eb0071f09900ff
:1020a4001e0090001100200021b898001e0090002e
:1020b400100f78001e007800100078009e00780051
:1020c40091007800910078000100a00001087800d8
:1020d4000080fa00000006000200fa00000f7800f9
:1020e4001e007800104078000080fb00c800dd006e
:1020f4001e00e800104078000080fb000100700022
:102104000080fa00000006000600fa00100798009c
:1021140021079800e21220008000eb001e009000ce
:10212400e3fa07001e009000ae009000010878005a
:102134000040eb00004f7800160037009e80fb0043
:102144001e019000200320000088b90000007800e0
:10215400000041000080e8009e4078001140980093
:102164001e80fb00c1762800614178009e80fb0040
:10217400200320000088b900000078007a004000a5
:102184009e00900000804000ae00900047010700d0
:102194001e4fe8001e407800e54f5000e7ff360070
:1021a4000080fa00000006000600fa0020079800ec
:1021b4000040eb00004f7800130037002e00900021
:1021c4000081e8009e80fb00200320000088b90005
:1021d4000000780000004100100798001e009000e5
:1021e400fc0040001e009000780040009e02900019
:1021f4000411210063c1b300010178008040eb00a9
:10220400ce0007001e4fe8001e407800e54f500046
:10221400eaff36000080fa00000006000600fa001b
:1022240010079800210798009e009000010f780085
:102234002e0090000000e00018003a001e01780013
:10224400fc0041001e80e8000201200091fa070012
:10225400c10220001e8040009fff07009e007800fe
:1022640090089800e20220001e0041009aff070037
:102274009e007800a0089800010320001e80400002
:1022840095ff07009e007800b00898001e007800b3
:1022940011c0b30001487800030037001e00780025
:1022a4008040eb00014878000080fa00000006003e
:1022b4000a00fa0010079800414798003207980076
:1022c400034f98004e409000e54f500015003e002b
:1022d4001e0090000081e8004e4090008080fb00ca
:1022e400200320000088b90000007800000f41009e
:1022f4001e007800104078000004a2000004e000f2
:102304000a003a001e007800300890008e499000c0
:102314003e019000800078004e40900095fe07003a
:102324000300370000000000010037000000000037
:102334000080fa00000006000200fa00000f780096
:102344001e007800104078000080fb00c800dd000b
:102354001e00e800104078000080fb0001007000bf
:102364000080fa00000006000600fa00000f780062
:10237400110798004247980053479800c201200073
:102384008000eb001e00780049fa07001e00780068
:10239400ce409000114098009e0078007880400064
:1023a4005e4190009e009000f3fa07001e00780042
:1023b4008040eb00014878000080fa00000006002d
:1023c4000200fa00000f78009e0078007880400038
:1023d400fafa0700c20120008000eb001e0078001a
:1023e40033fa07000080fa00000006000a00fa0031
:1023f400400798004e0090000000e0000400320006
:102404004e009000500890000000e00002003a00e6
:102414000040eb001b0037004e009000d0089000f5
:10242400110798004e009000905890004147980082
:102434000040eb00004f78001e009000d8fc07001d
:102444000000e0000e003a004e40900000404000c2
:10245400804078001e00900019fd070030079800a6
:102464001e009000fefc07003e00900000f0a70054
:102474000000ea000000e9004f00de00004f780091
:102484001e4078000080fa00000006001800fa00e0
:10249400300f98003e0890000000e0000400320075
:1024a4003e089000500890000000e00002003a004e
:1024b4000040eb001f0037003e0890007800400009
:1024c40063c1b3000e0178008040eb0054fb0700a9
:1024d4000000e000020032000040eb00150037006d
:1024e4003e0890000080e800020120008e00780081
:1024f400e8f90700700047008fff0700be0890004e
:1025040090089800720047008bff0700be089000f7
:10251400a00898007400470087ff0700be089000d9
:10252400b00898003e08900011c0b300014878003c
:1025340010c0b3000080fa00000006001a00fa0080
:102544007007980001579800120f9800435798009d
:10255400340f9800450f98007e0090000000e000c2
:10256400080032007e009000104078000004a200b1
:102574000004e00003003a004e5090000004e00024
:1025840002003a000040eb00210037000e51900099
:1025940061a4200082487800fe0090004152880027
:1025a4001e099000525288004e519000c1a4200090
:1025b40082487800be089000715288004e0990004d
:1025c400825288007e00900010409000004f7800f6
:1025d40060a420001007980010c0b3004047980082
:1025e4009e089000310798004e519000024f9800c9
:1025f400e03021005007980080a420006007980074
:102604007e009000100090008e00780046fe0700c7
:102614000080fa00000006000600fa001007980087
:10262400210798009e009000010f78001e0078009a
:10263400300090000000e0001a0032002e009000ec
:102644000000e00007003a001e007800300190000e
:102654001e007800400090008000eb0002000100a2
:10266400100037002e009000e10f500007003a00e0
:102674001e007800300190001e0078004000900099
:102684001100200002000100060037001e0078003f
:10269400300190001e0078004000900021002000ce
:1026a400020001000080fa00000006000600fa00a3
:1026b400000f780011079800424798004e409000a0
:1026c400804078000174a1001e0078001140980039
:1026d4001e0078009e009000110098001e007800f3
:1026e40011c0b300014878000080fa000000060021
:1026f4000000fa006426ef007826ef008c26ef0035
:10270400a026ef00b426ef00c826ef00dc26ef0079
:1027140010002000003388000080eb00a033880004
:102724000000270040348800f0ff2000e0348800d7
:10273400f00f200080358800f00720002036880044
:10274400c03c2000c03688007226ef008626ef00c9
:102754009a26ef00ae26ef00c226ef00d626ef0041
:10276400ea26ef007026ef008426ef009826ef009b
:10277400ac26ef00c026ef00d426ef00e826ef00d9
:102784007226ef008626ef009a26ef00ae26ef00b1
:10279400c226ef00d626ef00ea26ef007026ef00ef
:1027a4008426ef009826ef00ac26ef00c026ef0049
:1027b400d426ef00e826ef006626ef007a26ef0025
:1027c4008e26ef00a226ef00b626ef00ca26ef0001
:1027d400de26ef001000200040338800c0ff2f00e9
:1027e400e0338800000023008034880000cc2000ff
:1027f40020358800e0012000c0358800003c20001e
:10280400003788000080fa00000006000000fa008b
:10281400220120002175280000802000a2fd07006d
:1028240001802000808f200037fe0700d2fc0700c3
:10283400a221ef009a21ef00a0862100f00c88006d
:10284400110d80000003200001007000100d8800ad
:102854008900a9009900a800a3e1a80083e0a800ca
:102864000080fa00000006000000fa00e7ff0700fd
:10287400808f20004cfe07002cc9bf000004e0003c
:102884000800320063c4b3008238210011c0b300d1
:10289400808f200086fe070000802d00815b2000d1
:1028a4004f00070000a02600810120004c00070013
:1028b400efff37000000fa00000023001008880032
:1028c4000621ef006821ef006a21ef000c21ef00e0
:1028d4000e21ef007821ef007c21ef007e21ef0034
:1028e4008021ef008221ef008421ef008621ef0098
:1028f4000001eb0080072000a10920001310200034
:102904008049780081497800824978000001eb0011
:102914006004200071052000031020008049780025
:1029240081497800824978000080fa00000006009e
:020000040000fa
:102934005c0a00000200000082000000ffff0000ab
:10294400260a00002000000080000000580a000051
:1029540004000000800000000008000026020000bf
:10296400800000005e0a00000200000080000000f9
:10297400460a00000c00000080000000600a00000d
:102984000200000080000000620a00000200000053
:1029940082000000ff640000520a000006000000ec
:0829a4008000000000000000ab
:020000040000fa
:1029ac000200fa00000f78009e007800e1528800c7
:1029bc000000fe000080fa00000006000000fa0093
:1029cc0060a2200080077800e0a3200000018800ae
:0829dc000080fa000000060073
:020000040000fa
:1029e400f03fb1000180b10006003500ee0309009c
:1029f40000000000403fb1000180b100fbff3d003a
:102a04001000b000203fb000020035000080090033
:082a14000000000000000600b4
:020000040000fa
:102a1c00809fbe00ec80570031007800c0528800c7
:102a2c00110078005aeab7004f00be000000060003
:102a3c000000fa002cff0700030007009bff0700b3
:102a4c000080fa00000006000000fa000080fa0086
:042a5c000000060070
:020000040000fa
:020000040002f8
:04be0000ffffff0041
:020000040000fa
:020000040002f8
:04be2000ffffff0021
:020000040000fa
:020000040002f8
:04be300078ffff0098
:020000040000fa
:020000040002f8
:04be3800b7ffff0051
:020000040000fa
:020000040002f8
:04be40009fffff0061
:020000040000fa
:020000040002f8
:04be4800ffffff00f9
:020000040000fa
:020000040002f8
:04be5000dfffff0011
:020000040000fa
:020000040002f8
:04be58000000ff00e7
:020000040000fa
:020000040002f8
:04be60000000ff00df
:020000040000fa
:020000040002f8
:04be68000000ff00d7
:020000040000fa
:020000040002f8
:04be70000000ff00cf
:020000040000fa
:020000040002f8
:04be7800ffffff00c9
:020000040000fa
:020000040002f8
:04be8000ffffff00c1
:00000001FF
